{
  "_format": "hh-sol-artifact-1",
  "contractName": "Sandwich",
  "sourceName": "contracts/Sandwich.sol",
  "abi": [
    {
      "inputs": [
        {
          "internalType": "address",
          "name": "_WETH",
          "type": "address"
        }
      ],
      "stateMutability": "nonpayable",
      "type": "constructor"
    },
    {
      "inputs": [],
      "name": "WETH",
      "outputs": [
        {
          "internalType": "contract IWETH",
          "name": "",
          "type": "address"
        }
      ],
      "stateMutability": "view",
      "type": "function"
    },
    {
      "inputs": [],
      "name": "factory",
      "outputs": [
        {
          "internalType": "address",
          "name": "",
          "type": "address"
        }
      ],
      "stateMutability": "view",
      "type": "function"
    },
    {
      "inputs": [
        {
          "internalType": "uint256",
          "name": "amountIn",
          "type": "uint256"
        },
        {
          "internalType": "uint256",
          "name": "amountOutMin",
          "type": "uint256"
        },
        {
          "internalType": "address[]",
          "name": "path",
          "type": "address[]"
        }
      ],
      "name": "swap",
      "outputs": [],
      "stateMutability": "nonpayable",
      "type": "function"
    },
    {
      "inputs": [
        {
          "internalType": "uint256",
          "name": "amountIn",
          "type": "uint256"
        },
        {
          "internalType": "uint256",
          "name": "amountOutMin",
          "type": "uint256"
        },
        {
          "internalType": "address[]",
          "name": "path",
          "type": "address[]"
        }
      ],
      "name": "swapOut",
      "outputs": [],
      "stateMutability": "nonpayable",
      "type": "function"
    },
    {
      "inputs": [
        {
          "internalType": "address",
          "name": "token",
          "type": "address"
        }
      ],
      "name": "tokenBalance",
      "outputs": [
        {
          "internalType": "uint256",
          "name": "balance",
          "type": "uint256"
        }
      ],
      "stateMutability": "view",
      "type": "function"
    },
    {
      "inputs": [
        {
          "internalType": "address",
          "name": "token",
          "type": "address"
        },
        {
          "internalType": "uint256",
          "name": "amount",
          "type": "uint256"
        }
      ],
      "name": "withdraw",
      "outputs": [],
      "stateMutability": "nonpayable",
      "type": "function"
    },
    {
      "stateMutability": "payable",
      "type": "receive"
    }
  ],
  "bytecode": "0x608060405234801561001057600080fd5b506040516118203803806118208339818101604052602081101561003357600080fd5b8101908080519060200190929190505050336000806101000a81548173ffffffffffffffffffffffffffffffffffffffff021916908373ffffffffffffffffffffffffffffffffffffffff16021790555080600160006101000a81548173ffffffffffffffffffffffffffffffffffffffff021916908373ffffffffffffffffffffffffffffffffffffffff1602179055505061174b806100d56000396000f3fe6080604052600436106100595760003560e01c80637c926722146100e857806399585aac146101c1578063ad5c46481461029a578063c45a0155146102f1578063eedc966a14610348578063f3fef3a3146103ad576100e3565b366100e357600160009054906101000a900473ffffffffffffffffffffffffffffffffffffffff1673ffffffffffffffffffffffffffffffffffffffff1663d0e30db0346040518263ffffffff1660e01b81526004016000604051808303818588803b1580156100c857600080fd5b505af11580156100dc573d6000803e3d6000fd5b5050505050005b600080fd5b3480156100f457600080fd5b506101bf6004803603606081101561010b57600080fd5b8101908080359060200190929190803590602001909291908035906020019064010000000081111561013c57600080fd5b82018360208201111561014e57600080fd5b8035906020019184602083028401116401000000008311171561017057600080fd5b919080806020026020016040519081016040528093929190818152602001838360200280828437600081840152601f19601f820116905080830192505050505050509192919290505050610408565b005b3480156101cd57600080fd5b50610298600480360360608110156101e457600080fd5b8101908080359060200190929190803590602001909291908035906020019064010000000081111561021557600080fd5b82018360208201111561022757600080fd5b8035906020019184602083028401116401000000008311171561024957600080fd5b919080806020026020016040519081016040528093929190818152602001838360200280828437600081840152601f19601f820116905080830192505050505050509192919290505050610574565b005b3480156102a657600080fd5b506102af6106eb565b604051808273ffffffffffffffffffffffffffffffffffffffff1673ffffffffffffffffffffffffffffffffffffffff16815260200191505060405180910390f35b3480156102fd57600080fd5b50610306610711565b604051808273ffffffffffffffffffffffffffffffffffffffff1673ffffffffffffffffffffffffffffffffffffffff16815260200191505060405180910390f35b34801561035457600080fd5b506103976004803603602081101561036b57600080fd5b81019080803573ffffffffffffffffffffffffffffffffffffffff169060200190929190505050610729565b6040518082815260200191505060405180910390f35b3480156103b957600080fd5b50610406600480360360408110156103d057600080fd5b81019080803573ffffffffffffffffffffffffffffffffffffffff169060200190929190803590602001909291905050506107ea565b005b6000809054906101000a900473ffffffffffffffffffffffffffffffffffffffff1673ffffffffffffffffffffffffffffffffffffffff163373ffffffffffffffffffffffffffffffffffffffff161461046157600080fd5b6060610482735c69bee701ef814a2b6a3edd4b1652cb9cc5aa6f85846109ef565b9050828160018351038151811061049557fe5b602002602001015110156104f4576040517f08c379a000000000000000000000000000000000000000000000000000000000815260040180806020018281038252602b81526020018061169c602b913960400191505060405180910390fd5b61056e8260008151811061050457fe5b602002602001015130610554735c69bee701ef814a2b6a3edd4b1652cb9cc5aa6f8660008151811061053257fe5b60200260200101518760018151811061054757fe5b6020026020010151610b67565b8460008151811061056157fe5b6020026020010151610cc2565b50505050565b6000809054906101000a900473ffffffffffffffffffffffffffffffffffffffff1673ffffffffffffffffffffffffffffffffffffffff163373ffffffffffffffffffffffffffffffffffffffff16146105cd57600080fd5b60606105ee735c69bee701ef814a2b6a3edd4b1652cb9cc5aa6f85846109ef565b9050828160018351038151811061060157fe5b60200260200101511015610660576040517f08c379a000000000000000000000000000000000000000000000000000000000815260040180806020018281038252602b81526020018061169c602b913960400191505060405180910390fd5b6106da8260008151811061067057fe5b6020026020010151306106c0735c69bee701ef814a2b6a3edd4b1652cb9cc5aa6f8660008151811061069e57fe5b6020026020010151876001815181106106b357fe5b6020026020010151610b67565b846000815181106106cd57fe5b6020026020010151610cc2565b6106e5818330610ed3565b50505050565b600160009054906101000a900473ffffffffffffffffffffffffffffffffffffffff1681565b735c69bee701ef814a2b6a3edd4b1652cb9cc5aa6f81565b60008173ffffffffffffffffffffffffffffffffffffffff166370a08231306040518263ffffffff1660e01b8152600401808273ffffffffffffffffffffffffffffffffffffffff1673ffffffffffffffffffffffffffffffffffffffff16815260200191505060206040518083038186803b1580156107a857600080fd5b505afa1580156107bc573d6000803e3d6000fd5b505050506040513d60208110156107d257600080fd5b81019080805190602001909291905050509050919050565b6000809054906101000a900473ffffffffffffffffffffffffffffffffffffffff1673ffffffffffffffffffffffffffffffffffffffff163373ffffffffffffffffffffffffffffffffffffffff161461084357600080fd5b808273ffffffffffffffffffffffffffffffffffffffff166370a08231306040518263ffffffff1660e01b8152600401808273ffffffffffffffffffffffffffffffffffffffff1673ffffffffffffffffffffffffffffffffffffffff16815260200191505060206040518083038186803b1580156108c157600080fd5b505afa1580156108d5573d6000803e3d6000fd5b505050506040513d60208110156108eb57600080fd5b8101908080519060200190929190505050101561090757600080fd5b8173ffffffffffffffffffffffffffffffffffffffff1663a9059cbb6000809054906101000a900473ffffffffffffffffffffffffffffffffffffffff16836040518363ffffffff1660e01b8152600401808373ffffffffffffffffffffffffffffffffffffffff1673ffffffffffffffffffffffffffffffffffffffff16815260200182815260200192505050602060405180830381600087803b1580156109af57600080fd5b505af11580156109c3573d6000803e3d6000fd5b505050506040513d60208110156109d957600080fd5b8101908080519060200190929190505050505050565b6060600282511015610a69576040517f08c379a000000000000000000000000000000000000000000000000000000000815260040180806020018281038252601e8152602001807f556e697377617056324c6962726172793a20494e56414c49445f50415448000081525060200191505060405180910390fd5b815167ffffffffffffffff81118015610a8157600080fd5b50604051908082528060200260200182016040528015610ab05781602001602082028036833780820191505090505b5090508281600081518110610ac157fe5b60200260200101818152505060005b6001835103811015610b5f57600080610b1387868581518110610aef57fe5b6020026020010151876001870181518110610b0657fe5b6020026020010151611166565b91509150610b35848481518110610b2657fe5b6020026020010151838361128f565b846001850181518110610b4457fe5b60200260200101818152505050508080600101915050610ad0565b509392505050565b6000806000610b7685856113bf565b91509150858282604051602001808373ffffffffffffffffffffffffffffffffffffffff1673ffffffffffffffffffffffffffffffffffffffff1660601b81526014018273ffffffffffffffffffffffffffffffffffffffff1673ffffffffffffffffffffffffffffffffffffffff1660601b8152601401925050506040516020818303038152906040528051906020012060405160200180807fff000000000000000000000000000000000000000000000000000000000000008152506001018373ffffffffffffffffffffffffffffffffffffffff1673ffffffffffffffffffffffffffffffffffffffff1660601b8152601401828152602001807f96e8ac4277198ff8b6f785478aa9a39f403cb768dd02cbee326c3e7da348845f815250602001925050506040516020818303038152906040528051906020012060001c925050509392505050565b600060608573ffffffffffffffffffffffffffffffffffffffff166323b872dd868686604051602401808473ffffffffffffffffffffffffffffffffffffffff1673ffffffffffffffffffffffffffffffffffffffff1681526020018373ffffffffffffffffffffffffffffffffffffffff1673ffffffffffffffffffffffffffffffffffffffff16815260200182815260200193505050506040516020818303038152906040529060e01b6020820180517bffffffffffffffffffffffffffffffffffffffffffffffffffffffff83818316178352505050506040518082805190602001908083835b60208310610dcf5780518252602082019150602081019050602083039250610dac565b6001836020036101000a0380198251168184511680821785525050505050509050019150506000604051808303816000865af19150503d8060008114610e31576040519150601f19603f3d011682016040523d82523d6000602084013e610e36565b606091505b5091509150818015610e765750600081511480610e755750808060200190516020811015610e6357600080fd5b81019080805190602001909291905050505b5b610ecb576040517f08c379a00000000000000000000000000000000000000000000000000000000081526004018080602001828103825260248152602001806116c76024913960400191505060405180910390fd5b505050505050565b60005b600183510381101561116057600080848381518110610ef157fe5b6020026020010151856001850181518110610f0857fe5b6020026020010151915091506000610f2083836113bf565b5090506000876001860181518110610f3457fe5b602002602001015190506000808373ffffffffffffffffffffffffffffffffffffffff168673ffffffffffffffffffffffffffffffffffffffff1614610f7c57826000610f80565b6000835b91509150600060028a51038810610f975788610fcd565b610fcc735c69bee701ef814a2b6a3edd4b1652cb9cc5aa6f878c60028c0181518110610fbf57fe5b6020026020010151610b67565b5b9050610fee735c69bee701ef814a2b6a3edd4b1652cb9cc5aa6f8888610b67565b73ffffffffffffffffffffffffffffffffffffffff1663022c0d9f848484600067ffffffffffffffff8111801561102457600080fd5b506040519080825280601f01601f1916602001820160405280156110575781602001600182028036833780820191505090505b506040518563ffffffff1660e01b8152600401808581526020018481526020018373ffffffffffffffffffffffffffffffffffffffff1673ffffffffffffffffffffffffffffffffffffffff16815260200180602001828103825283818151815260200191508051906020019080838360005b838110156110e55780820151818401526020810190506110ca565b50505050905090810190601f1680156111125780820380516001836020036101000a031916815260200191505b5095505050505050600060405180830381600087803b15801561113457600080fd5b505af1158015611148573d6000803e3d6000fd5b50505050505050505050508080600101915050610ed6565b50505050565b600080600061117585856113bf565b509050600080611186888888610b67565b73ffffffffffffffffffffffffffffffffffffffff16630902f1ac6040518163ffffffff1660e01b815260040160606040518083038186803b1580156111cb57600080fd5b505afa1580156111df573d6000803e3d6000fd5b505050506040513d60608110156111f557600080fd5b81019080805190602001909291908051906020019092919080519060200190929190505050506dffffffffffffffffffffffffffff1691506dffffffffffffffffffffffffffff1691508273ffffffffffffffffffffffffffffffffffffffff168773ffffffffffffffffffffffffffffffffffffffff161461127957808261127c565b81815b8095508196505050505050935093915050565b60008084116112e9576040517f08c379a000000000000000000000000000000000000000000000000000000000815260040180806020018281038252602b8152602001806116eb602b913960400191505060405180910390fd5b6000831180156112f95750600082115b61134e576040517f08c379a00000000000000000000000000000000000000000000000000000000081526004018080602001828103825260288152602001806116746028913960400191505060405180910390fd5b60006113656103e58661153690919063ffffffff16565b9050600061137c848361153690919063ffffffff16565b905060006113a7836113996103e88961153690919063ffffffff16565b6115cb90919063ffffffff16565b90508082816113b257fe5b0493505050509392505050565b6000808273ffffffffffffffffffffffffffffffffffffffff168473ffffffffffffffffffffffffffffffffffffffff161415611447576040517f08c379a000000000000000000000000000000000000000000000000000000000815260040180806020018281038252602581526020018061164f6025913960400191505060405180910390fd5b8273ffffffffffffffffffffffffffffffffffffffff168473ffffffffffffffffffffffffffffffffffffffff1610611481578284611484565b83835b8092508193505050600073ffffffffffffffffffffffffffffffffffffffff168273ffffffffffffffffffffffffffffffffffffffff16141561152f576040517f08c379a000000000000000000000000000000000000000000000000000000000815260040180806020018281038252601e8152602001807f556e697377617056324c6962726172793a205a45524f5f41444452455353000081525060200191505060405180910390fd5b9250929050565b600080821480611553575082828385029250828161155057fe5b04145b6115c5576040517f08c379a00000000000000000000000000000000000000000000000000000000081526004018080602001828103825260148152602001807f64732d6d6174682d6d756c2d6f766572666c6f7700000000000000000000000081525060200191505060405180910390fd5b92915050565b6000828284019150811015611648576040517f08c379a00000000000000000000000000000000000000000000000000000000081526004018080602001828103825260148152602001807f64732d6d6174682d6164642d6f766572666c6f7700000000000000000000000081525060200191505060405180910390fd5b9291505056fe556e697377617056324c6962726172793a204944454e544943414c5f414444524553534553556e697377617056324c6962726172793a20494e53554646494349454e545f4c4951554944495459556e69737761705632526f757465723a20494e53554646494349454e545f4f55545055545f414d4f554e545472616e7366657248656c7065723a205452414e534645525f46524f4d5f4641494c4544556e697377617056324c6962726172793a20494e53554646494349454e545f494e5055545f414d4f554e54a2646970667358221220bf02c4dd56b5e71872aab74b70178d2ef42255682ba5d4fb4ddfabd951f4587a64736f6c63430006060033",
  "linkReferences": {},
  "deployedLinkReferences": {}
}